:100000000C9448000C9465000C9465000C946500F9
:100010000C9465000C9465000C9465000C946500CC
:100020000C9465000C9465000C9465000C946500BC
:100030000C9465000C9465000C9465000C946500AC
:100040000C9465000C9465000C9465000C9465009C
:100050000C9465000C9465000C9465000C9465008C
:100060000C9465000C9465000C9465000C9465007C
:100070000C9465000C9465000C9465000C9465006C
:100080000C9465000C9465000C9465000C9465005C
:1000900011241FBECFEFCDBFDFE7DEBF11E6A0E02A
:1000A000B0E6EEECF8E002C005900D92A231B10787
:1000B000D9F721E6A2E1B1E601C01D92A331B20752
:1000C000E1F70E94C9010C9465040C94000069EAF0
:1000D00080E890E00E945F048091650084FFFCCF7F
:1000E00060E081E690E00E945F0463E880E690E0D3
:1000F0000E945F048091650080FDFCCF60918000CC
:100100006F7780E890E00C945F040F931F938B014E
:100110009C01BB27A32F922F812F492F50E0FA017A
:10012000EF5EFF49E081AC01BD01552766277727C7
:100130004E27FA01EF5EFF4940811127222733271E
:1001400050E060E070E0041715072607370711F04C
:1001500080E090E01F910F9108958CE0809305045A
:100160000895E0E0F9E010828FE5868381E08383E3
:1001700085830895880F682B6093070940EA56E845
:1001800061E070E080E023E090910509907C49F403
:100190004150510961097109B9F72093040983E0BD
:1001A000F3CF9091050994FD81E0909105099C7031
:1001B00019F4882329F001C082E093E090930409A8
:1001C000089520910509909105099C7021F424FF60
:1001D00007C081E001C082E093E090930409089594
:1001E0008093080980EA96E8A1E0B0E02091050933
:1001F00026FD08C00197A109B109C1F783E08093EA
:100200000409089580E00895FB0140EA56E861E0A2
:1002100070E090910509907A41F4415051096109CB
:100220007109B9F793E090931261811102C084E0E3
:1002300001C082E0809304098091080980830895B9
:100240003F924F925F926F927F928F929F92AF9266
:10025000BF92CF92DF92EF92FF920F931F93CF93B3
:10026000DF93CDB7DEB72597CDBFDEBF9FEF940FED
:10027000983008F071C0E42EF62E182F60E00E942E
:10028000BA00882349F0312C412C512C612C712C5F
:10029000C12CD12C10E052C08F2D0E94E1008111A1
:1002A000F2CF61E0812F0E94BA008111ECCFF12CD6
:1002B000970183E0220F331F8A95E1F72A833B835E
:1002C000812C912CA12CB12C312C412C512C612C46
:1002D000712CC12CD12C10E0C70101978C839D8318
:1002E00088E0881A9108AE14BF0444F5198281E0B1
:1002F0002C813D81A216B3060CF080E0BE016F5F39
:100300007F4F0E940401298130E040E050E060E02E
:1003100070E080E090E0EA81FB81E80DF91D0E2F8E
:100320000E944604322A432A542A652A762AC72A7A
:10033000D82A192B3FEFA31AB30AD2CF8091040910
:10034000836080930409232D342D452D562D672D70
:100350007C2D8D2D912F08C020E030E040E050E052
:1003600060E070E080E090E02596CDBFDEBFDF91D9
:10037000CF911F910F91FF90EF90DF90CF90BF90A2
:10038000AF909F908F907F906F905F904F903F9035
:1003900008950E9467000E94AD000E94B10083EFA3
:1003A0000E94E3010E94970285EF0E94E3010E94F0
:1003B00097022FEF82E597E0215080409040E1F7CF
:1003C00000C00000ECCFCF92DF92EF92FF921F931C
:1003D000CF93DF931F92CDB7DEB7182F833E11F076
:1003E000853E69F443E0612F80E40E942001A32F41
:1003F000F42FE52F622F7A2F8F2F9E2F8FC0833FF0
:1004000019F0853F09F087C060E080E40E94BA00DF
:10041000812F0E94E10020EA2A95F1F783E0809382
:100420000409809102608038B9F0813819F0813078
:1004300089F521C0133F41F43FE34EEC50E03150C9
:1004400040405040E1F737C08FE399E121E081500F
:1004500090402040E1F72FC0133F41F43FE346E2D4
:1004600053E0315040405040E1F725C08FEE92ED0F
:100470000197F1F720C0133F41F49FE72CE931E0E9
:10048000915020403040E1F716C08FEB9DE5019779
:10049000F1F711C0133F41F49FEB29E336E091508F
:1004A00020403040E1F707C04FEB5FE182E0415070
:1004B00050408040E1F700C0000061E080E40E940D
:1004C000BA001982BE016F5F7F4F81E00E94040174
:1004D000C980D12CE12CF12C7601DD24CC241982A9
:1004E000BE016F5F7F4F81E00E9404018981D82A9D
:1004F0001982BE016F5F7F4F80E00E9404019981E5
:1005000080910409836080930409A7019601292B37
:10051000CA01B90103C060E070E0CB010F90DF9128
:10052000CF911F91FF90EF90DF90CF9008950E94A0
:1005300085009C01BC0180E090E021FF21C0625059
:100540007109810991090E944B0320E030E040E8E5
:1005500057E30E94D90320E030E04AEF52E40E94C2
:10056000D90320E030E040EC50E40E94DE026093CA
:1005700008607093096080930A6090930B601CC0C0
:100580000E944B0320E030E040E857E30E94D9038B
:1005900022E538EB4FE253E40E94D90326E636E623
:1005A0004BE352E40E94DE026093046070930560A6
:1005B000809306609093076080E008955058BB27B1
:1005C000AA270E94F6020C949F030E94910338F020
:1005D0000E94980320F039F49F3F19F426F40C94FC
:1005E0008E030EF4E095E7FB0C948803E92F0E943C
:1005F000B00358F3BA17620773078407950720F012
:1006000079F4A6F50C94D2030EF4E0950B2EBA2FD4
:10061000A02D0B01B90190010C01CA01A001112408
:10062000FF27591B99F0593F50F4503E68F11A16B4
:10063000F040A22F232F342F4427585FF3CF469545
:1006400037952795A795F0405395C9F77EF41F1667
:10065000BA0B620B730B840BBAF09150A1F0FF0F31
:10066000BB1F661F771F881FC2F70EC0BA0F621F1D
:10067000731F841F48F4879577956795B795F7950D
:100680009E3F08F0B0CF9395880F08F09927EE0FA2
:10069000979587950895E89409C097FB3EF4909547
:1006A0008095709561957F4F8F4F9F4F9923A9F04B
:1006B000F92F96E9BB279395F695879577956795DA
:1006C000B795F111F8CFFAF4BB0F11F460FF1BC01E
:1006D0006F5F7F4F8F4F9F4F16C0882311F096E9B1
:1006E00011C0772321F09EE8872F762F05C066235F
:1006F00071F096E8862F70E060E02AF09A95660F18
:10070000771F881FDAF7880F9695879597F90895D0
:1007100097F99F6780E870E060E008959FEF80ECB4
:10072000089500240A941616170618060906089557
:1007300000240A9412161306140605060895092EBD
:100740000394000C11F4882352F0BB0F40F4BF2B2C
:1007500011F460FF04C06F5F7F4F8F4F9F4F08956C
:1007600057FD9058440F551F59F05F3F71F0479562
:10077000880F97FB991F61F09F3F79F08795089547
:10078000121613061406551FF2CF4695F1DF08C066
:10079000161617061806991FF1CF86957105610583
:1007A00008940895E894BB2766277727CB0197F92B
:1007B00008950E94EC030C949F030E94910338F06B
:1007C0000E94980320F0952311F00C9488030C9458
:1007D0008E0311240C94D3030E94B00370F3959FF1
:1007E000C1F3950F50E0551F629FF001729FBB2728
:1007F000F00DB11D639FAA27F00DB11DAA1F649FC4
:100800006627B00DA11D661F829F2227B00DA11D76
:10081000621F739FB00DA11D621F839FA00D611DFC
:10082000221F749F3327A00D611D231F849F600D1D
:10083000211D822F762F6A2F11249F5750409AF046
:10084000F1F088234AF0EE0FFF1FBB1F661F771FD2
:10085000881F91505040A9F79E3F510580F00C949D
:1008600088030C94D3035F3FE4F3983ED4F386955A
:1008700077956795B795F795E7959F5FC1F7FE2B3D
:10088000880F911D9695879597F908950F930830D5
:1008900090F0982F872F762F652F542F432F322FCC
:1008A00022270850F4CF220F331F441F551F661F05
:1008B000771F881F991F0A95B2F70F910895DC01E1
:0E08C00028ED209334006C930895F894FFCF38
:1008CE000100000000000000000000000000000019
:1008DE000000316253C4F5A697B988DBEA7D4C1F40
:1008EE002E4372211087B6E5D4FACB98A93E0F5C41
:1008FE006D86B7E4D5427320113F0E5D6CFBCA992D
:10090E00A8C5F4A796013063527C4D1E2FB889DA24
:10091E00EB3D0C5F6EF9C89BAA84B5E6D7407122F9
:10092E00137E4F1C2DBA8BD8E9C7F6A594033261FE
:10093E0050BB8AD9E87F4E1D2C02336051C6F7A4F6
:10094E0095F8C99AAB3C0D5E6F4170231285B4E7E2
:10095E00D67A4B1829BE8FDCEDC3F2A1900736650F
:10096E005439085B6AFDCC9FAE80B1E2D344752644
:10097E0017FCCD9EAF38095A6B4574271681B0E32C
:10098E00D2BF8EDDEC7B4A192806376455C2F3A020
:10099E00914776251483B2E1D0FECF9CAD3A0B5829
:1009AE006904356657C0F1A293BD8CDFEE79481B02
:1009BE002AC1F0A3920534675678491A2BBC8DDEF6
:1009CE00EF82B3E0D1467724153B0A5968FFCE9DDE
:0209DE00AC006B
:00000001FF
