:100000000C9455010C9472010C9472010C947201C1
:100010000C9472010C9472010C9472010C94720194
:100020000C9472010C9472010C9472010C94720184
:100030000C9472010C9472010C9472010C94720174
:100040000C9472010C9472010C9472010C94720164
:100050000C9472010C9472010C9472010C94720154
:100060000C9472010C9472010C9472010C94720144
:100070000C9472010C9472010C9472010C94720134
:100080000C9472010C9472010C9472010C94720124
:100090001A112F111D112011231126112911DD1202
:1000A000EB12F912071310131E13271335133E1307
:1000B0004C13551363136C137A1307634236B79BC3
:1000C000D8A71A39685618AEBAAB558C1D3CB7CCB8
:1000D0005763BD6DEDFD753EF6177231BF00000030
:1000E000803F08000000BE922449123EABAAAA2A13
:1000F000BECDCCCC4C3E00000080BEABAAAAAA3E2E
:1001000000000000BF000000803F00000000000869
:100110004178D3BB4387D1133D190E3CC3BD428206
:10012000AD2B3E68EC8276BED98FE1A93E4C80EFC4
:10013000FFBE01C4FF7F3F00000000000664EC1B0F
:100140003C04BC163E3BE5B93CC93C37C29E5A3D17
:10015000660498083EEA69AAAA3E000000803F00B3
:100160006E616E00696E660000407A10F35A00A05E
:10017000724E18090010A5D4E80000E87648170070
:1001800000E40B54020000CA9A3B000000E1F505B0
:10019000000080969800000040420F000000A086FA
:1001A00001000000102700000000E803000000002C
:1001B0006400000000000A000000000001000000D0
:1001C00000002C76D888DC674F0823DFC1DFAE59EA
:1001D000E1B1B796E5E3E453C63AE651997696E87D
:1001E000E6C28426EB898C9B62ED407C6FFCEFBC01
:1001F0009C9F40F2BAA56FA5F490055A2AF75C932C
:100200006B6CF9676DC11BFCE0E40D47FEF520E661
:10021000B500D0ED902E0300943577050080841E44
:10022000080000204E0A000000C80C333333330F9F
:10023000986E12831141EF8D2114893BE65516CF3C
:10024000FEE6DB18D1844B381BF77C1D901DA4BB48
:10025000E424203284725E228100C9F124ECA1E5FD
:100260003D276364696E6F70737578585B004E410B
:100270004E494E495459494E46CDCCCC3D0AD72320
:100280003C17B7D13877CC2B329595E6241FB14F68
:100290000A000020410000C84200401C4620BCBEAD
:1002A0004CCA1B0E5AAEC59D740011241FBECFEF61
:1002B000CDBFDFE7DEBF18E6A0E0B0E6E2EAF9E591
:1002C00002C005900D92A235B107D9F728E6A2E544
:1002D000B8E601C01D92A43CB207E1F70E945A0D96
:1002E0000C94CF2C0C940000E0E0F6E087E08183D2
:1002F00081E082838083089585E08093B0008EE161
:1003000080930806089585E08093B0008FE1809384
:10031000080608951092B0008AE1809308060895B7
:1003200081E080930A0680910D0680FFFCCFE0E01B
:10033000F6E081E0858780899189929582958F701A
:1003400089279F70892708954F925F926F927F92BD
:100350008F929F92AF92BF92CF92DF92EF92FF92D5
:10036000CF93DF93C8E6D0E6CC80DD80EE80FF80BF
:1003700023E333E948E853E4C701B6010E94DF1BD9
:100380002B013C0129E23CE54DE851E4C701B601EF
:100390000E94231F4B015C0120E030E843E753E457
:1003A000C701B6010E94DF1B9B01AC01C501B4016E
:1003B0000E94501C0E94CA1C21E835E943EC50E41D
:1003C0000E94231F6B017C01688579858A859B8546
:1003D00020E030E048EC52E40E94501C9B01AC014C
:1003E000C701B6010E94231F9B01AC0160911160FF
:1003F0007091126080911360909114600E94DE1BD6
:100400004B015C012AE038EE4CE151E4C301B2013A
:100410000E94501C6B017C01A501940160E070E515
:100420008DE794E40E94501C0E94A71E9B01AC0122
:10043000C701B6010E94231F2BEC36E84FE853E4B6
:100440000E94231FDF91CF91FF90EF90DF90CF901C
:10045000BF90AF909F908F907F906F905F904F90E4
:100460000895CF92DF92EF92FF92CF93DF93609146
:10047000116070911260809113609091146020E07F
:1004800030E54DE754E40E94501C2BE534ED42E486
:100490005EEB0E94901F20E030E040E85FE30E94A6
:1004A000DE1B25EC3AE24DE257E40E94231F6B016C
:1004B0007C01C0E0D0E6688379838A839B830E94B5
:1004C000A4019B01AC016C837D838E839F83C70154
:1004D000B6010E94DF1B20E030E040E05FE30E94B5
:1004E000231F688779878A879B87DF91CF91FF9049
:1004F000EF90DF90CF9008958F929F92AF92BF922E
:10050000CF92DF92EF92FF920F93CF93DF93CDB70D
:10051000DEB76197CDBFDEBF20E0298B8EC1398960
:10052000313029F0323039F0198668E807C081E0AF
:10053000898760E903C092E0998768E948E086E727
:100540000E94150C29833A834B835C836D837E83E1
:100550008F8398872985211174C0298100E30E9427
:10056000D52529873A8729813A814B815C816D8124
:100570007E818F81988508E30E94D525822E932E57
:10058000ECE0F0E629853A85922F8827882A992A77
:100590008186928629813A814B815C816D817E8141
:1005A0008F81988500E20E94D525822E932E20E02F
:1005B00040E050E060E070E080E090E008E00E9401
:1005C000D52529873A87982C882489859A85882A71
:1005D000992A8386948629813A814B815C816D8139
:1005E0007E818F81988500E10E94D525822E932EF1
:1005F00020E040E050E060E070E080E090E008E063
:100600000E94D52529873A87982C882429853A8500
:10061000822A932A8586968620E03A8140E050E03F
:1006200060E070E080E090E00E94D525822E932E5D
:1006300029813A81922F8827882A992A8786908A49
:10064000F9C03985313009F07BC029813A814B816D
:100650005C816D817E818F81988500E30E94D52524
:10066000822E932E29813A814B815C816D817E811E
:100670008F81988508E30E94D52529873A87ECE089
:10068000F0E6982C882489859A85882A992A818A77
:10069000928A29813A814B815C816D817E818F8133
:1006A000988500E20E94D525822E932E20E040E01E
:1006B00050E060E070E080E090E008E00E94D52526
:1006C00029873A87982C882429853A85822A932A73
:1006D000838A948A29813A814B815C816D817E81F4
:1006E0008F81988500E10E94D525822E932E20E0EF
:1006F00040E050E060E070E080E090E008E00E94C0
:10070000D52529873A87982C882489859A85882A2F
:10071000992A858A968A20E03A8140E050E060E09C
:1007200070E080E090E00E94D525822E932E2981F2
:100730003A81922F8827882A992A878A908E7AC0B0
:1007400029813A814B815C816D817E818F81988581
:1007500000E30E94D52529873A8729813A814B8178
:100760005C816D817E818F81988508E30E94D5250B
:10077000822E932EECE0F0E629853A85922F882789
:10078000882A992A818E928E29813A814B815C81B7
:100790006D817E818F81988500E20E94D525822E11
:1007A000932E20E040E050E060E070E080E090E0D8
:1007B00008E00E94D52529873A87982C88248985C6
:1007C0009A85882A992A838E948E29813A814B8131
:1007D0005C816D817E818F81988500E10E94D525A5
:1007E000822E932E20E040E050E060E070E080E058
:1007F00090E008E00E94D52529873A87982C882424
:1008000029853A85822A932A858E968E20E03A8120
:1008100040E050E060E070E080E090E00E94D5258C
:10082000822E932E89819A81382F222728293929CF
:10083000278F30A399899F5F998B2989233008F4EA
:100840006ECE6196CDBFDEBFDF91CF910F91FF904D
:10085000EF90DF90CF90BF90AF909F908F900895D2
:10086000CF93DF93CCE0D0E69FA94EA988AD440F8B
:10087000440F20E2929F400D1124480F64EF86E759
:100880000E94FC0B9BA94CA98DA9440F440F20E2A8
:10089000929F400D1124480F65EF86E70E94FC0BE4
:1008A000DF91CF91089563EF86E70E94D10BECE0D2
:1008B000F0E6982F9695969596959F7091AF8F70CC
:1008C00082AF08950F93CF93DF9302C00E94530429
:1008D00080914560882321F0809146608111F6CF98
:1008E00043E067EF86E70E94150C04E00E94D525DF
:1008F000CCE0D0E62DA33EA34FA358A743E06AEF78
:1009000086E70E94150C0E94D52529A33AA34BA384
:100910005CA3DF91CF910F9108954F925F926F92F8
:100920007F928F929F92AF92BF92CF92DF92EF927F
:10093000FF92CF93DF93CCE0D0E689A09AA0ABA042
:10094000BCA0B501A401689412F8759567955795F8
:1009500047951694D1F749845A84612C712CD301A0
:10096000C201880F991FAA1FBB1F9A01AB01281B48
:10097000390B4A0B5B0BAB85BC850E9488246B014D
:100980007C010B2EBBE0F594E794D794C794BA95FD
:10099000D1F7B02DD501C401689413F8B595A7958A
:1009A000979587951694D1F7BC01CD016419750907
:1009B000860997099B01AC010E940E249B01AC01A2
:1009C000012E1CE055954795379527951A95D1F737
:1009D000102DAD85BE850E948824DC01CB01072E39
:1009E0007EE0B595A795979587957A95D1F7702D67
:1009F0008C0D9D1DAE1DBF1D89A79AA7ABA7BCA7D7
:100A00006C017D01CC0CDD1CEE1CFF1CCC0CDD1C34
:100A1000EE1CFF1CC80ED91EEA1EFB1E80E8C80E85
:100A2000D11CE11CF11CCD2CDE2CEF2CFF24E7FCAB
:100A3000FA94CDA6DEA6C701B6010E94331D20E0C0
:100A400030E048EC52E40E94501C69837A838B8327
:100A50009C83C601DF91CF91FF90EF90DF90CF9004
:100A6000BF90AF909F908F907F906F905F904F90CE
:100A700008952F923F924F925F926F927F928F9242
:100A80009F92AF92BF92CF92DF92EF92FF920F931D
:100A90001F93CF93DF93CDB7DEB76097CDBFDEBF97
:100AA000409035605090366060903760709038604C
:100AB000D301C201BB0F880B982FDC0189839A8375
:100AC000AB83BC83242D352D462D572D6981762F80
:100AD000862F962F345F41405109610971098109C0
:100AE00091092D833E834F835887262E372E882EDB
:100AF000992EA22EB32EC42ED52EE62EF72E082F19
:100B0000192F0E949024B0902660A09025601B2D84
:100B1000110F110BC12ED12EE12EF12E012F0E94AB
:100B2000902429873A874B875C876D877E878F87DC
:100B3000988BB0902460A09023601B2D110F110B97
:100B4000C12ED12EE12EF12E012F2D813E814F811C
:100B50005885622D732D882D992D0E94902401E1D6
:100B60000E94BA25A22EB32EC42ED52EE62EF72E25
:100B7000082F192F29853A854B855C856D857E85E3
:100B80008F8598890E94F125822E932E242E352E52
:100B9000B62FA72FF82FE92F3091226020912160E6
:100BA000932F990F990B492F592F692F792F892F3F
:100BB00003E20E94BA25A22EB32EC42ED52EE62E15
:100BC000F72E082F192F282D392D422D532D6B2F3D
:100BD0007A2F8F2F9E2F0E94F1252D833E834F83E6
:100BE000588769877A878B879C87242D352D462DDA
:100BF000572D6981762F862F962F345F41405109FA
:100C0000610970488F4F9F4FE0911B60F0911C600D
:100C10001F01AE2EB32CC12CD12CE12CF12C00E005
:100C200010E00E94902401E20E94D325422E532E10
:100C3000642E752E862E972E282E392EA0E00E9427
:100C4000032609F420C140913160509132606091D7
:100C500033607091346080E090E0A0E1B0E0841BEC
:100C6000950BA60BB70B6C017D01FF0CCC08DC2C9F
:100C70007601282F392F4A2F5B2F6C2D7C2D8C2D40
:100C80009C2D0FE10E94BA25AD80BE80CF80D88414
:100C9000E984FA840B851C850E94FA250F2EF5E362
:100CA000AF2EF02D0F2EFCE0BF2EF02DC12CD12C3D
:100CB000E12CF12C00E010E00E949024A42CB52C33
:100CC000C62CD72CE82CF92C022D132D0E94EB24D6
:100CD00029833D834E835F83688779878A879B87D3
:100CE000F0912C60A0912B60EF2FEE0FEE0B0DE03A
:100CF0000E94D325222E332E442E552E662E772E7B
:100D0000882E992EA22EB32EC42ED52EE62EF72E87
:100D1000082F192F2A2F3F2F4E2F5E2F6E2F7E2F39
:100D20008E2F9E2F0E949024A22EB32EC42ED52E3D
:100D3000E62EF72E082F192F222D332D442D552D59
:100D4000662D772D882D992D0E94902409E10E940F
:100D5000D325522E432E342E252E6C877D878E87E9
:100D60009F87B0902A60A09029601B2D110F110B56
:100D7000C12ED12EE12EF12E012F29813D814E81F0
:100D80005F81688579858A859B850E94902403E12F
:100D90000E94D325622E732E842E952EB62FA72F58
:100DA000F82FE92F29813D814E815F816885798502
:100DB0008A859B85A52CB42CC32CD22CEC84FD8475
:100DC0000E851F850E94F125A22EB32EC42ED52E8E
:100DD000E62EF72E082F192F262D372D482D592DA9
:100DE0006B2F7A2F8F2F9E2F0E94F12508E00E94F3
:100DF000D325822E932E642E752EB62FA72FF82F73
:100E0000E92F3091286020912760932F990F990B3B
:100E1000492F592F692F792F892F04E00E94BA2575
:100E2000A22EB32EC42ED52EE62EF72E082F192F64
:100E3000282D392D462D572D6B2F7A2F8F2F9E2F32
:100E40000E94F125022F132FE42EF52E0E942B1D58
:100E500020E030E048EC56E40E94501C60931160A2
:100E6000709312608093136090931460602F712FC1
:100E70008E2D9F2D00933B6010933C60E0923D606F
:100E8000F0923E6004C060E070E080E090E0609628
:100E9000CDBFDEBFDF91CF911F910F91FF90EF90FB
:100EA000DF90CF90BF90AF909F908F907F906F908A
:100EB0005F904F903F902F90089569EA80E890E00E
:100EC0000E94C92C8091650084FFFCCF60E081E620
:100ED00090E00E94C92C63E080E690E00E94C92C5B
:100EE0008091650080FDFCCF609180006F7780E885
:100EF00090E00E94C92C089561EC73E60E941427CB
:100F0000009749F123E530E63F932F9321E530E642
:100F10003F932F932FE430E63F932F932DE430E659
:100F20003F932F932BE430E63F932F9329E430E651
:100F30003F932F9327E430E63F932F9323EC33E640
:100F40003F932F939F938F930E94A5278DB79EB7B2
:100F500042968DBF9EBF61EC73E680E090E00E94F8
:100F60001427009751F00E940F26609358687093E1
:100F7000596880935A6890935B6861EC73E680E0EF
:100F800090E00E941427009751F00E940F26609372
:100F9000546870935568809356689093576861ECD5
:100FA00073E680E090E00E941427009751F00E94C1
:100FB0000F266093556070935660809357609093AE
:100FC000586061EC73E680E090E00E94142700977F
:100FD00051F00E940F266093596070935A6080937D
:100FE0005B6090935C6061EC73E680E090E00E944F
:100FF0001427009731F00E94132680935D60909330
:101000005E6008950F931F93CF93DF93CDB7DEB744
:10101000EC97CDBFDEBFFE0131968CE3DF011D9260
:101020008A95E9F710E000E00E94811090916360DA
:1010300091111FC0113079F48E3329F4CE0101963D
:101040000E947C0729C0E1E0F0E0EC0FFD1FE00FFB
:10105000F11D80830F5F8C3309F411E08091616092
:10106000813011F70E94740FE7E4F0E6138E128EC0
:10107000DBCFE7E4F0E6148E838D8A3020F48F5FB7
:101080008093626009C080916160811102C00E94FA
:10109000740F81E080936160EC96CDBFDEBFDF917D
:1010A000CF911F910F910895AC0183709927892BDF
:1010B000A1F49A013695279536952795ABE7B4E1CB
:1010C0000E946E249695879564E6689F9001699FBB
:1010D000300D112442175307D1F49A01329522950D
:1010E0002F7023273F702327AEE3BAE00E946E24BF
:1010F00020E931E0BC01629FC001639F900D729FA7
:10110000900D11244817590721F481E0089581E0DA
:10111000089580E00895BF92CF92DF92EF92FF9200
:101120000F931F93CF93DF93CDB7DEB76897CDBFF3
:10113000DEBF6C0198E1E9EAF3E6DE011196019069
:101140000D929A95E1F7C114D10471F1662371F102
:101150006D3070F5F22EB42E162FC6010E94540881
:10116000882321F08DE190E08B839C83BB2011F1DB
:101170004B2D50E0E12FF0E03197EE0FFF1F81E0A3
:1011800090E08C0F9D1FE80FF91F808191818417DB
:10119000950794F097E19F1588F00C3388F48BE362
:1011A0008E1580F481E00FC081E00DC081E00BC09E
:1011B00081E009C081E007C081E005C081E003C093
:1011C00081E001C080E06896CDBFDEBFDF91CF91A6
:1011D0001F910F91FF90EF90DF90CF90BF900895F7
:1011E0009CE0980F81E0993108F480E008959C011B
:1011F0002C503E4F81E02D31354208F480E00895B7
:10120000CF92DF92EF92FF926B017C0120E030E001
:1012100044EB52EC0E944B1C882364F020E030E049
:1012200044EB52E4C701B6010E94581E181624F47C
:1012300081E003C081E001C080E0FF90EF90DF908B
:10124000CF900895CF92DF92EF92FF926B017C01D5
:1012500020E030E044E353EC0E944B1C882364F010
:1012600020E030E044E353E4C701B6010E94581E79
:10127000181624F481E003C081E001C080E0FF90F3
:10128000EF90DF90CF900895EF92FF920F931F930E
:10129000CF93DF930E9402080E94A70AE8E6F0E6D7
:1012A00010850185F284E384A481B581C681D7814C
:1012B000E4E5F8E6408551856285738584819581F2
:1012C00026813781EF92FF920F931F93ECE0F0E6B7
:1012D00010851F9317811F9316811F93E581EF934C
:1012E000DF93CF93BF93AF937F936F935F934F93AE
:1012F0003F932F939F938F93E7E4F0E683858F933B
:1013000082858F9381858F9380858F9387818F933B
:1013100086818F9385818F9384818F9383818F932F
:1013200082818F9381818F9380818F9389ED93E662
:101330009F938F930E948F278DB79EB782968DBF04
:101340009EBFDF91CF911F910F91FF90EF90089575
:10135000CF92DF92EF92FF920F931F93C72ED82E5A
:10136000E92EFF248B019C011127222733274D2DC5
:1013700050E0FA01ED5CFB49E081B701A601552779
:10138000662777274E27FA01ED5CFB49408150E044
:1013900060E070E0041715072607370711F4C6014F
:1013A00002C080E090E01F910F91FF90EF90DF90DE
:1013B000CF9008958F929F92AF92BF92CF92DF927B
:1013C000EF92FF92CF93DF93C0905468D09055680E
:1013D000E0905668F090576820E030E0A901C7011E
:1013E000B6010E944B1C18160CF09EC02BED3FE07E
:1013F00049E450E4C701B6010E94231F20E030E019
:1014000044E353E40E94501C4B015C0160915F6017
:10141000709160601616170674F5072E000C880B85
:10142000990B0E94331D24EF3DEF44ED5BE30E94D6
:10143000231F23E333E140E953E40E94501C9B0146
:10144000AC0160E070E080E89FE30E94DE1B26EFC5
:1014500038E248EA50E40E94901F9B01AC01CCE0C6
:10146000D0E66D817E818F8198850E94231F6D83D8
:101470007E838F8398872FE135E843EA50E4C701E4
:10148000B6010E94DF1B9B01AC016DEC7CEC84E299
:1014900091E40E94501C9B01AC01C501B4010E9463
:1014A000DF1B0E9404209B01AC0160E77EEC88E812
:1014B0009CE30E94501C6B017C0160911160709153
:1014C0001260809113609091146020E030E84CE746
:1014D00054E40E94501C4B015C0160916C6070915F
:1014E0006D6080916E6090916F6020E030E848E818
:1014F00053E40E94DF1B9B01AC0160E070E88DE8C3
:1015000093E40E94501C9B01AC01C501B4010E94F0
:10151000231F9B01AC01C701B6010E94231F562F58
:10152000472F382F292F04C050E040E030E020E062
:10153000652F742F832F922FDF91CF91FF90EF9023
:10154000DF90CF90BF90AF909F908F900895CF92F3
:10155000DF92EF92FF92C0905468D0905568E0906F
:101560005668F090576820E030E0A901C701B60145
:101570000E94581E1816E4F40E94DA0920E030E0B8
:1015800040E752E40E94501C9B01AC01C701B60128
:101590000E94DF1BE4E5F8E6608771878287938706
:1015A00084819581A681B78184879587A687B7872F
:1015B000FF90EF90DF90CF9008950E948A010E94E3
:1015C00090019695879596958795BC0180E090E06F
:1015D0000E94311D0E94E01F0E94FC1C6093646801
:1015E000709365680895CF93DF93E0EEF5E091E0A6
:1015F00092831682A0E0B4E08CE911968C93119747
:1016000080E212968C93129788E054968C935497AC
:1016100055968C935597E0E4F4E0918392E096839D
:10162000808B818B60EA74E024E0EB0129832D83B9
:1016300020E634E04CECE90149834D839E8398E138
:10164000EB019E83E901898BEB018C8B8B8B82896B
:10165000887F828B82898460828B8289877F828B5C
:101660008389887F838B83898460838B8389877F49
:10167000838B56968C915697887F56968C93569767
:1016800056968C915697846056968C93569756969C
:101690008C915697877F56968C93DF91CF910895C2
:1016A000E0E0F9E082E0808385E0868381E0838367
:1016B0008583089590E0880F991F862B80930709F2
:1016C00040E251EA67E070E009C041505109610908
:1016D000710921F483E08093040905C08091050914
:1016E000807C99F380E09091050994FD81E09091D0
:1016F00005099C7009F082E0882319F093E090932B
:101700000409809366680895282F9091050994FD37
:1017100002C080E001C081E0909105099C7009F051
:1017200082E0882319F093E090930409811114C09A
:101730002093080940E251EA67E070E009C0415097
:1017400051096109710921F483E08093040904C0FF
:101750009091050996FFF3CF809366680895DB01A9
:1017600040E251EA67E070E009C041505109610967
:10177000710921F493E09093666804C09091050983
:10178000907A99F39091666891110AC0882311F0BC
:1017900082E001C084E0E0E0F9E0848380858C93FE
:1017A00008950F931F93CF93DF931F92CDB7DEB7AA
:1017B000182F062F198260E00E945A0B811110C069
:1017C000802F0E94840B81110BC061E0812F0E9449
:1017D0005A0B811105C0BE016F5F7F4F0E94AF0B96
:1017E000E0E0F9E084818360848389810F90DF9158
:1017F000CF911F910F910895CF93DF93C62FD42FD0
:1018000060E00E945A0B811108C08C2F0E94840B4B
:10181000811103C08D2F0E94840BE0E0F9E08481E8
:1018200083608483DF91CF9108954F925F926F928E
:101830007F928F929F92AF92BF92CF92DF92EF9260
:10184000FF920F931F93CF93DF931F92CDB7DEB715
:101850009FEF940F983008F07BC0442EF62E182F7F
:1018600060E00E945A0B811154C08F2D0E94840B9E
:10187000811158C061E0812F0E945A0B8823C9F161
:10188000512C612C712CC12CD12CE12CF12C10E0AD
:1018900051C0198281E0A81AB10881E08A149B0422
:1018A0000CF080E0BE016F5F7F4F0E94AF0B809114
:1018B000666881113FC02981A818B908AA0CBB1C11
:1018C000AA0CBB1CAA0CBB1C30E040E050E060E05E
:1018D00070E090E00A2D0E94BA25522A632A742AE9
:1018E000C52AD62AE72AF82A192B8FEF881A980AD0
:1018F0000AC0812C912C512C612C712CC12CD12C23
:10190000E12CF12C10E0A42CB12C8A149B040CF2D5
:1019100011C0512C612C712CC12CD12CE12CF12C3B
:1019200010E008C0512C612C712CC12CD12CE12C61
:10193000F12C10E0E0E0F9E0848183608483252DC0
:10194000362D472D5C2D6D2D7E2D8F2D912F08C0AE
:1019500020E030E040E050E060E070E080E090E0C7
:101960000F90DF91CF911F910F91FF90EF90DF903B
:10197000CF90BF90AF909F908F907F906F905F902F
:101980004F900895CF93DF93CDB7DEB72797CDBFA4
:10199000DEBF80E8898380E48A8388E08B8394E0DB
:1019A0009C8392E09D8390E19E838F8380E041C081
:1019B000682F70E0E1E0F0E0EC0FFD1FE60FF71F8D
:1019C00040814093660490E02FC091110EC0309189
:1019D0006804E5E0F0E0EC0FFD1FE90FF11D208148
:1019E000322321E079F020E00DC03091A804E5E039
:1019F000F0E0EC0FFD1FE90FF11D2081322321E003
:101A000009F020E0222379F0E1E0F0E0EC0FFD1F87
:101A1000E60FF71F208120936504282F220F820FE5
:101A2000890F8F5F0AC09F5F933078F240936504FF
:101A30008F5F843008F4BCCF80E02796CDBFDEBF37
:101A4000DF91CF910895CF930E94C20CC82F80914F
:101A50006968C8131FC0CC23E9F080916768909132
:101A600068680A968093676890936868C29779F46B
:101A70000E94740FEAE6F8E684E18C0F81831082FD
:101A800083E390E0809367689093686809C0C0938F
:101A90006A6806C01092676810926868C0936A68A6
:101AA000C09369688FE59AEE0197F1F700C00000D6
:101AB000CF9108950E945D070E94F30A0E94500B87
:101AC0000E9474010E9421100E9451100E94200F58
:101AD000E8E6F0E612821182C1E0C08313820E9420
:101AE000CB0DECE0F0E685E087AB86AB83E080AF22
:101AF00013AA84E084ABC5AB0E9430040E947C0230
:101B00000E94740F0E9462040E948D040E94390595
:101B100085EE0E94DF0D0E94C90E83EE0E94DF0D4C
:101B20000E94C90E0E9444090E94CA100E94DE1041
:101B30000E94DD0A0E9431020E94230D0E94CF1BE9
:101B4000ECE6F8E6B181A081E4E5F8E64085518550
:101B5000628573858485958526853785C189CF9370
:101B6000E089EF931F92BF931F92AF937F936F9380
:101B70005F934F933F932F939F938F9383E395E6C8
:101B80009F938F931F920E9498108DB79EB7419696
:101B90008DBF9EBFB7CFE8E6F0E69281418180819C
:101BA0002381440F440F490F880F480F80E4289F7A
:101BB000400D112466EE80E40E94FC0B0895CF9244
:101BC000DF92EF92FF920F931F93CF93DF931F92B9
:101BD000CDB7DEB7182F833E11F0853E51F443E0B8
:101BE000612F80E40E94150C622F732F842F952F94
:101BF000C6C0833F19F0853F09F0B3C060E080E4C0
:101C00000E945A0B8111B2C0812F0E94840B811156
:101C1000B2C020EA2A95F1F783E08093040980910D
:101C20006A608038D9F0813819F08130E9F529C02F
:101C3000133F51F48FE39EEC20E081509040204010
:101C4000E1F700C0000045C08FE399E121E0815039
:101C500090402040E1F700C000003BC0133F51F42A
:101C60008FE396E223E0815090402040E1F700C0EE
:101C700000002FC08FEE92ED0197F1F700C0000039
:101C800028C0133F51F49FE72CE981E09150204098
:101C90008040E1F700C000001CC08FEB9DE501977C
:101CA000F1F700C0000015C0133F51F49FEB29E38A
:101CB00086E0915020408040E1F700C0000009C05C
:101CC0009FEB2FE182E0915020408040E1F700C07F
:101CD000000061E080E40E945A0B882381F160E0FB
:101CE00070E080E090E04BC0198281E00230110585
:101CF0000CF080E0BE016F5F7F4F0E94AF0B8091C0
:101D00006668811124C0898190E0A0E0B0E022E003
:101D100030E0201B310B220F331F220F331F220F05
:101D2000331F04C0880F991FAA1FBB1F2A95D2F723
:101D3000C82AD92AEA2AFB2A0F5F1F4F05C000E0F4
:101D400010E0C12CD12C7601033011056CF2E0E0DB
:101D5000F9E08481836084836C2D7D2D8E2D9F2DF1
:101D60000EC060E070E080E090E009C060E070E0EC
:101D700080E090E004C060E070E080E090E00F90D0
:101D8000DF91CF911F910F91FF90EF90DF90CF9057
:101D900008950E94A809AC0160E070E081FF23C0B3
:101DA000CB01BA0162507109810991090E94311D6C
:101DB00020E030E040E857E30E94231F20E030E0BD
:101DC0004AEF52E40E94231F20E030E040EC50E450
:101DD0000E94DE1B609370607093716080937260EC
:101DE000909373601FC0BC0180E090E00E94311DA1
:101DF00020E030E040E857E30E94231F22E538EB63
:101E00004FE253E40E94231F26E636E64BE352E4FA
:101E10000E94DE1B60936C6070936D6080936E60B7
:101E200090936F6080E00895482F60E08FE30E94F8
:101E3000FC0B0895482F60E48FE30E94FC0B08958B
:101E4000CF9360E08FE30E945A0BC0E008C0EC2FF4
:101E5000F0E0E256FC4980810E94840BCF5FCB30DA
:101E6000B0F3CF9108951F93CF93DF93D82F80EED7
:101E70008D0F803628F0D03B19F0D03C08F4D0E22A
:101E8000D03B21F0D03C20F410E203C010E501C0AB
:101E90001FE5C0E013C08D2F90E0811B9109FC016C
:101EA000EE0FFF1FEE0FFF1FE80FF91FE758FF4966
:101EB000EC0FF11D80810E941A0FCF5FC53058F3DF
:101EC00080E00E941A0FDF91CF911F910895CF9368
:101ED000C82F803408F0CFE381E80E94140F8C2FC4
:101EE0000E94140FCF9108950F931F93CF93DF9308
:101EF00000E010E016C080EB800F0E94140F80E01D
:101F00000E94140F80E10E94140FC0E0D0E004C0D2
:101F100080E00E941A0F2196C038D105CCF30F5FE4
:101F20001F4F083011053CF380E20E94670FDF91DC
:101F3000CF911F910F9108950F931F93CF93DF932C
:101F40008C01D62FC0E005C00E94330F0F5F1F4FDA
:101F5000CF5FF8018081882339F0CD17A8F304C042
:101F600080E20E94330FCF5FCD17D0F3DF91CF9186
:101F70001F910F910895DC0190E001C09F5FFD016A
:101F8000E90FF11D2081222311F09617B8F3892F54
:101F9000880F980F292F220F413019F0423069F035
:101FA0000FC080E890E0AC01421B5109CA0199239F
:101FB0000CF4019695958795089580E8821B089505
:101FC00080E008950F931F93CF93DF93EC01062FCA
:101FD00065E10E94BB0F182F802F806B0E94140FA9
:101FE000812F82958F7080610E94140F812F8F70D6
:101FF0000E94140F65E1CE010E949C0FDF91CF91EA
:102000001F910F910895CF93DF93CDB7DEB7E2977D
:10201000CDBFDEBF9E01255C3F4F4FA958AD62E3A7
:1020200070E0CE0101960E94BE274AAD69ADCE0197
:1020300001960E94E20FE296CDBFDEBFDF91CF9105
:102040000895E0E0F8E08DE490E08087918782ECED
:10205000868383E0878308959091040895FFFCCFE1
:102060008093020808950F931F93CF93DF938C0101
:10207000C0E0D0E007C0F801EC0FFD1F80810E9496
:102080002C102196F80101900020E9F73197E01B10
:10209000F10BCE17DF0778F3DF91CF911F910F91EE
:1020A0000895E0E2F8E08DE490E08087918782EC8B
:1020B000868383E0878308959091240895FFFCCF61
:1020C0008093220808950F931F93CF93DF938C0181
:1020D000C0E0D0E007C0F801EC0FFD1F80810E9436
:1020E0005C102196F80101900020E9F73197E01B80
:1020F000F10BCE17DF0778F3DF91CF911F910F918E
:10210000089580E88093240880E291EAA7E0B0E097
:1021100008C00197A109B10921F483E080936360AD
:1021200004C0209124082223A4F780912008089558
:102130001F93CF93DF93CDB7DEB7C058D109CDBF82
:10214000DEBFCA57DF4F1881C658D0409E012757BF
:102150003F4FC957DF4F48815981C758D04060E889
:1021600070E0CE0101960E94BE27111105C0CE017C
:1021700001960E94331006C0113021F4CE01019661
:102180000E946310C058DF4FCDBFDEBFDF91CF91FB
:102190001F9108950E947C010E949001BC0180E083
:1021A00090E00E94311D20E030E040EF5BE30E94B0
:1021B000231F0E94FC1C60936C6808950E94830199
:1021C0000E9490019C01243281E0380718F410929B
:1021D0006D6808952C3D8EE0380720F087E08093ED
:1021E0006D680895E9E4F2E0C9018C5D9E4FBF017E
:1021F0000E941E246E9FC0016F9F900D1124AC01A0
:10220000425951092417350738F08E569F4F8217CF
:10221000930710F060936D680895E0916D688E2FBC
:1022200090E0FC013197E730F105B0F4E85BFF4F37
:102230000C9468248AE495E6089580E595E608956F
:1022400083E595E6089586E595E6089589E595E6A2
:1022500008958CE595E608958FE595E608958DE45B
:1022600095E608959F92AF92BF92CF92DF92EF9240
:10227000FF920F931F93CF93DF937C01EB018A01B1
:10228000FC01C584D484B385A285B184A084778100
:1022900066815581448133812281918180811F92A1
:1022A0001F921F92CF921F92DF921F92BF931F9295
:1022B000AF931F92BF921F92AF921F927F931F9274
:1022C0006F931F925F931F924F931F923F931F92A2
:1022D0002F931F929F931F928F93DD24D394DF92AD
:1022E0001F9282E695E69F938F930E940310BD8410
:1022F000CC84BB85AA85F985E8857F816E815D8167
:102300004C813B812A81A98098808DB79EB78296A7
:102310008DBF9EBF1F92BF921F92CF921F92BF93FD
:102320001F92AF931F92FF931F92EF931F927F9381
:102330001F926F931F925F931F924F931F923F9331
:102340001F922F931F92AF921F929F92DF92DF9264
:1023500086E895E69F938F930E940310F701868588
:102360002DB73EB7205E3F4F2DBF3EBF811102C04B
:102370006BE201C06DE2F7018189811102C07BE24D
:1023800001C07DE2F701558944893389228990890A
:1023900087851F925F931F924F931F923F931F92C7
:1023A0002F931F927F931F929F931F928F931F9241
:1023B0006F93DD24D394DF9282E08F938AEA95E6CF
:1023C0009F938F930E9403107D896C895B894A8952
:1023D000398928899F858E851F927F931F926F93DD
:1023E0001F925F931F924F931F923F931F922F93C1
:1023F0001F929F931F928F93DF9283E08F9388ECBD
:1024000095E69F938F930E940310F70186892DB75D
:102410003EB7285D3F4F2DBF3EBF811102C06BE22A
:1024200001C06DE2F701548D438D328D218D908D69
:1024300087891F925F931F924F931F923F931F9222
:102440002F931F929F931F928F931F926F93689465
:10245000DD24D1F8DF9284E08F9386EE95E69F939A
:102460008F930E9403106C8D5B8D4A8D398D288D62
:102470009F898E891F926F931F925F931F924F9334
:102480001F923F931F922F931F929F931F928F93A0
:10249000DF9285E08F9383E296E69F938F930E946D
:1024A0000310F701858D2DB73EB72C5D3F4F2DBF33
:1024B0003EBF811102C07BE201C07DE2F70164A151
:1024C00053A142A131A120A1978D868D1F926F93B8
:1024D0001F925F931F924F931F923F931F922F93D0
:1024E0001F929F931F928F931F927F936894FF2454
:1024F000F1F8FF9286E08F9383E096E69F938F93A7
:102500000E9403107CA16BA15AA149A138A12F8D73
:102510009E8D8D8D1F927F931F926F931F925F935D
:102520001F924F931F923F931F922F931F929F933F
:102530001F928F93FF9287E08F9381E296E69F939D
:102540008F930E9403102DB73EB7285D3F4F2DBFDC
:102550003EBF80E01AC0F8019081891310C0853217
:1025600030F49EE5FE01E80FF11D90830DC0E82FC9
:10257000F0E03197EC0FFD1F93E7908305C090E2E8
:10258000FE01E80FF11D90838F5F863220F3DF910B
:10259000CF911F910F91FF90EF90DF90CF90BF9060
:1025A000AF909F90089590E08E30910508F0ABC0F9
:1025B000FC01E15BFF4F0C9468248091476090918F
:1025C000486068EE73E00E943224CB016AE070E05C
:1025D0000E9432240895809147609091486064E69B
:1025E00070E00E943224CB016AE070E00E94322445
:1025F000089580914760909148602AE030E0B901E9
:102600000E943224CB01B9010E94322408958091A6
:102610004760909148606AE070E00E94322408951B
:102620008091496090914A602AE030E0B9010E94AF
:102630003224CB01B9010E9432240895809149606F
:1026400090914A606AE070E00E943224089580917F
:102650004B6090914C602AE030E0B9010E94322436
:10266000CB01B9010E943224089580914B60909172
:102670004C606AE070E00E943224089580914D60C1
:1026800090914E602AE030E0B9010E943224CB01E3
:10269000B9010E943224089580914D6090914E605E
:1026A0006AE070E00E943224089580914F6090911A
:1026B00050602AE030E0B9010E943224CB01B90118
:1026C0000E943224089580914F60909150606AE09A
:1026D00070E00E9432240895809151609091526080
:1026E0002AE030E0B9010E943224CB01B9010E94F6
:1026F0003224089580915160909152606AE070E0B8
:102700000E943224089580E00895813051F018F03D
:102710008230D1F027C080915E60881F8827881F93
:10272000089580915D6090915E6099231CF491956D
:10273000819591092AE030E0B9010E943224CB0151
:10274000B9010E943224089580915D6090915E608D
:1027500099231CF49195819591096AE070E00E949B
:102760003224089580E00895823029F128F48823E6
:1027700049F0813069F053C0833081F1843009F42D
:1027800040C04DC080916060881F8827881F0895D1
:1027900080915F609091606099231CF49195819580
:1027A000910968EE73E00E943224CB016AE070E088
:1027B0000E943224089580915F6090916060992317
:1027C0001CF491958195910964E670E00E94322491
:1027D000CB016AE070E00E943224089580915F602E
:1027E0009091606099231CF49195819591092AE05C
:1027F00030E0B9010E943224CB01B9010E94322499
:10280000089580915F609091606099231CF4919588
:10281000819591096AE070E00E943224089580E079
:102820000895CF92DF92EF92FF920F931F93CF9371
:10283000DF93D82FCB01BA01C22F21110BC0C1E009
:1028400020E030E0A9010E944B1C88230CF0C0E07E
:102850008C2F8CC06B017C01E894F7F8C701B6019E
:102860000E94FC1C162F70E080E090E00E94331D57
:102870009B01AC01C701B6010E94DE1B20E030E4E1
:102880004CE156E40E94231F0E94E01F0E94FC1CA2
:102890006B017C01DC17F0F470E021E030E040E0F7
:1028A00050E04DC069017A01CC0CDD1CEE1CFF1C10
:1028B000D701C601880F991FAA1FBB1F880F991F38
:1028C000AA1FBB1FA7019601280F391F4A1F5B1FB4
:1028D0006F5F05C060E021E030E040E050E0E62FAF
:1028E000F0E08D2F90E08C1B9109E817F907D4F2E6
:1028F000612F70E080E090E00E944624CA01B90197
:102900002AE030E040E050E00E944624862F2EC0AE
:1029100089019A01000F111F221F331FD901C8011D
:10292000880F991FAA1FBB1F880F991FAA1FBB1FC3
:10293000A9019801280F391F4A1F5B1F7F5FE72FEE
:10294000F0E08D2F90E004968C1B9109E817F907B1
:10295000FCF2C701B6010E944624CA01B9012AE06F
:1029600030E040E050E00E944624862FDF91CF9176
:102970001F910F91FF90EF90DF90CF9008950F93EC
:102980001F93CF93C82F8E3040F48B01080F111D79
:102990000E94D312F801808341C082EF8C0F8330F4
:1029A00040F48B010C0F111D0E948513F8018083E8
:1029B00035C08FEE8C0F853040F48B010C0F111D4C
:1029C0000E94B413F801808329C02AEE2C0F27300F
:1029D00088F48B010C0F111D409155605091566089
:1029E000609157607091586082E00E941114F80164
:1029F000808314C023EE2C0F283080F48B010C0F41
:102A0000111D4091596050915A6060915B607091C6
:102A10005C6083E00E941114F801808381E08C0FD8
:102A2000CF911F910F9108954F925F926F927F9275
:102A30008F929F92AF92BF92CF92DF92EF92FF92CE
:102A40000F931F93CF93DF934C01462EE0E020E0DD
:102A500030E040E050E060E070E080E090E02EC0C8
:102A600001E00E94BA25522E632E742ED52FC62F58
:102A7000B72FA82FF92F02E00E94BA25A22EB32E5D
:102A8000C42ED52EE62EF72E082F192F252D362DE4
:102A9000472D5D2F6C2F7B2F8A2F9F2F0E94F125B2
:102AA000D401AE0FB11DAC90B12CC12CD12CE12CB6
:102AB000F12C00E010E00E94F125EF5FE41580F2B8
:102AC000DF91CF911F910F91FF90EF90DF90CF900A
:102AD000BF90AF909F908F907F906F905F904F903E
:102AE0000895882329F088279927861B970B089536
:102AF000CB010895882321F0CB01BA0190580895A5
:102B0000CB01BA0108952F923F924F925F926F923C
:102B10007F928F929F92AF92BF92CF92DF92EF926D
:102B2000FF920F931F93CF93DF93CDB7DEB7269716
:102B3000CDBFDEBF8D839E832B0162E00F960E9486
:102B40001415622F732FAD81BE811E968C910E9449
:102B50007115182F64E08D819E8142960E94141594
:102B6000622F732FED81FE8181890E947115898307
:102B70009A8366E08D819E8147960E9414150E947B
:102B80002B1D20E030E44CE156E40E94501CAB01C8
:102B9000BC01AD81BE8156968C910E947A15F62EAD
:102BA000D72EC82EB92E67E08D819E814E960E9449
:102BB00014150E942B1D20E030E44CE156E40E94E5
:102BC000501CAB01BC01ED81FE81858D0E947A1500
:102BD0006B83672E782EA92EAD81BE811C96EC905A
:102BE0001C971D96AC91ED81FE8152852385308521
:102BF000F185FC83ED81FE814681B78194808580DB
:102C0000008168EE73E0069FC001079F900D1124BC
:102C100061811C01F4E66F9F200C311C1124ED81B1
:102C2000FE81828190E0BC01660F771F880F991F9B
:102C3000880F991F880F991F860F971F820D931D6C
:102C40007381EE2DEE0FEE2EEE0CEE0CEE0DEE2E51
:102C5000EA0E550F052F000F000F500F052F020F22
:102C6000330F232F220F220F320F2C81230F440FFB
:102C7000342F330F330F430F4B0F990C692D660F11
:102C8000660F960E692D680D870F911D0E948B08A7
:102C90008130D1F4F1E0FF9383E08F9384E396E6F3
:102CA0009F938F930E94031021E02F9384E08F93D2
:102CB0008FE396E69F938F930E940310D2011C929C
:102CC000CDBFDEBF85E1F3C0812F0E94F0088130C7
:102CD00091F48F9383E08F9389E496E69F938F938B
:102CE0000E9403108EE0D2018C930F900F900F90F2
:102CF0000F9085E1DCC089819A810E94F7088130BC
:102D0000D9F4B1E0BF9383E08F938BE596E69F9370
:102D10008F930E940310E1E0EF9384E08F938AE6A3
:102D200096E69F938F930E94031081E1D2018C93CA
:102D3000CDBFDEBF85E1BBC06F2D7D2D8C2D9B2DC2
:102D40000E940009813091F48F9383E08F938BE789
:102D500096E69F938F930E94031086E1D2018C9395
:102D60000F900F900F900F9085E1A1C05B81652FB0
:102D7000762D872D9A2D0E942209813091F48F9310
:102D800083E08F938BE896E69F938F930E940310C6
:102D90008EE1F20180830F900F900F900F9085E1EC
:102DA00086C0D2011C92EE24E394EF9283E08F93CD
:102DB0008CE996E69F938F930E9403100F2EF0EA02
:102DC0008F2EF4E09F2EF02D04E0F40106838FE5B2
:102DD0009AEE0197F1F700C00000AD81BE811D960B
:102DE0002C901D971C963C901C971B964C901B9703
:102DF0001A96FC911A971996EC91199718967C914E
:102E0000189717966C91179716965C9116971596CA
:102E10004C91159714963C91149713962C911397F7
:102E200012969C91129711968C911197BC91BC832C
:102E3000AF927F926F92AB81AF93BF92CF92DF92AE
:102E4000FF92A12F012E000CBB0BBF931F931F926B
:102E50002F921F923F921F924F921F92FF931F92A9
:102E6000EF931F927F931F926F931F925F931F9216
:102E70004F931F923F931F922F931F929F931F92E6
:102E80008F931F92BC81BF9385EA96E69F938F93A1
:102E9000EF920E949810E981FA81E0935F60F093CD
:102EA0006060D40115960C93CDBFDEBF80E0FFEFCC
:102EB0002DE339E4F15020403040E1F700C000003C
:102EC00080936B682696CDBFDEBFDF91CF911F91B7
:102ED0000F91FF90EF90DF90CF90BF90AF909F90B9
:102EE0008F907F906F905F904F903F902F900895BC
:102EF0001F93CF93DF93C82F811134C01F928F93FC
:102F000086ED96E69F938F930E940310E7E4F0E628
:102F100085858F9384858F9383858F9382858F9307
:102F200081858F9380858F9387818F9386818F93FF
:102F300085818F9384818F9383818F9382818F93F7
:102F400081818F9380818F9382E08F93CF9389EDDE
:102F500096E69F938F930E9403108DB79EB7469677
:102F60008DBF9EBFC23010F5D1E0DC1B1F92DF93F6
:102F700083EF96E69F938F930E940310E4E5F8E6B3
:102F800084819581268137813F932F939F938F93DF
:102F900082E08F93DF9388EF96E69F938F930E9452
:102FA00003108DB79EB70C968DBF9EBFC33010F532
:102FB00012E0D12FDC1B1F92DF9383E097E69F93F3
:102FC0008F930E940310E4E5F8E6808191812281CD
:102FD00033813F932F939F938F931F93DF9388EFBA
:102FE00096E69F938F930E9403108DB79EB70C9621
:102FF0008DBF9EBFC43010F5D3E0DC1B1F92DF9362
:103000008EEF96E69F938F930E940310E4E5F8E617
:1030100080859185228533853F932F939F938F934E
:1030200082E08F93DF9388EF96E69F938F930E94C1
:1030300003108DB79EB70C968DBF9EBFC530F0F0C4
:10304000DCE0DC1B1F92DF9389E097E69F938F9370
:103050000E940310E7E4F0E687898F9386898F93B7
:1030600082E08F93DF9383E895E69F938F930E948E
:1030700003108DB79EB70A968DBF9EBFC63010F164
:10308000DDE0DC1B1F92DF938EE097E69F938F932A
:103090000E940310E7E4F0E681898F9380898F9383
:1030A00087858F9386858F9382E08F93DF9386E168
:1030B00097E69F938F930E9403108DB79EB70C964F
:1030C0008DBF9EBFC73018F18EE08C1BC82F1F929A
:1030D0008F938CE197E69F938F930E940310E7E410
:1030E000F0E685898F9384898F9383898F93828972
:1030F0008F9382E08F93CF9388EF96E69F938F9381
:103100000E9403108DB79EB70C968DBF9EBFDF91B6
:10311000CF911F910895CF93DF93C82F853010F57D
:10312000D4E0D81B1F92DF9385E297E69F938F939D
:103130000E940310ECE0F0E68181928123813481CA
:103140003F932F939F938F9382E08F93DF938FE230
:1031500097E69F938F930E9403108DB79EB70C96AE
:103160008DBF9EBFC63010F5D5E0DC1B1F92DF93EC
:1031700085E397E69F938F930E940310E8E6F0E6BD
:1031800084819581268137813F932F939F938F93DD
:1031900082E08F93DF938FE297E69F938F930E9455
:1031A00003108DB79EB70C968DBF9EBFC73010F52C
:1031B000D6E0DC1B1F92DF938FE397E69F938F93FC
:1031C0000E940310ECE0F0E680858F9387818F9357
:1031D00086818F9385818F9382E08F93DF9388EF31
:1031E00096E69F938F930E9403108DB79EB70C961F
:1031F0008DBF9EBFC83010F5D7E0DC1B1F92DF9358
:1032000086E497E69F938F930E940310E8E6F0E62A
:1032100080859185228533853F932F939F938F934C
:1032200082E08F93DF938FE297E69F938F930E94C4
:1032300003108DB79EB70C968DBF9EBF8FEF8C0F7E
:10324000883010F5D8E0DC1B1F92DF938DE497E601
:103250009F938F930E940310E0E0F0E683818F93A9
:1032600082818F9381818F9380818F9382E08F936E
:10327000DF938DE597E69F938F930E9403108DB7A0
:103280009EB70C968DBF9EBF8EEF8C0F883010F5C9
:10329000D9E0DC1B1F92DF9381E597E69F938F9324
:1032A0000E940310E0E0F0E687818F9386818F9380
:1032B00085818F9384818F9382E08F93DF938DE557
:1032C00097E69F938F930E9403108DB79EB70C963D
:1032D0008DBF9EBF8DEF8C0F883010F5DAE0DC1BC0
:1032E0001F92DF9383E697E69F938F930E940310CC
:1032F000E0E0F0E680859185228533853F932F932A
:103300009F938F9382E08F93DF938DE597E69F9352
:103310008F930E9403108DB79EB70C968DBF9EBFF2
:103320008CEF8C0F8830F0F4DBE0DC1B1F92DF9316
:103330008FE697E69F938F930E940310E7E4F0E6F1
:10334000818D8F93808D8F9382E08F93DF9383E8BD
:1033500095E69F938F930E9403108DB79EB70A96B0
:103360008DBF9EBF88EF8C0F8530E0F4DFE0DC1B63
:103370001F92DF938AE797E69F938F930E94031033
:1033800080916C681F928F9382E08F93DF9383E824
:1033900095E69F938F930E9403108DB79EB70A9670
:1033A0008DBF9EBF87EF8C0F8530E0F4D0E1DC1B32
:1033B0001F92DF9384E897E69F938F930E940310F8
:1033C00080916D681F928F9382E08F93DF9383E8E3
:1033D00095E69F938F930E9403108DB79EB70A9630
:1033E0008DBF9EBF86EF8C0F8530F8F481E18C1B7A
:1033F000C82F1F928F938CE897E69F938F930E941C
:103400000310E4E5F8E681898F9380898F9382E049
:103410008F93CF9383E895E69F938F930E94031039
:103420008DB79EB70A968DBF9EBFDF91CF9108954D
:1034300080916A688A3021F40E94740F10926B6840
:10344000089591E09F938F9385E997E69F938F93DB
:103450000E9403100F900F900F900F9008954FE669
:1034600058E660E778E686E998E60E943211809196
:103470006160813021F483E00E94211A3CC0809178
:103480006A688A30C1F08C30B1F00E94C20C8111A0
:10349000FCCF90916A68992371F120916F68E22FB7
:1034A000F0E09B3009F4982FEA56F74990832F5F9C
:1034B00020936F6820C08A3041F490916F689923FF
:1034C00021F0915090936F6816C08C30A1F466E99A
:1034D00078E680916F680E94BF1480936F6886328F
:1034E00051F40E94740F6FE678E686E998E60E9430
:1034F00083150E94740F80916F68811102C00E9431
:10350000181A089580916A68883021F490916E6845
:103510009A3030F08230B1F480916E68882391F057
:103520000E94C20C8111FCCF80916A68883011F42E
:1035300081E001C08FEF90916E68890F80936E6873
:103540000E94740F80916160813099F490916E684F
:103550008BEF890F833028F0983028F08EE0891B9C
:1035600003C087E001C080E0943039F00E94211A46
:1035700004C080916E680E94781780916E680E94E6
:103580008B180E94181A0895EF92FF920F931F93C1
:10359000CF93DF931F921F9284EA97E69F938F93B6
:1035A0000E940310C8E6D0E68C819D812E813F8168
:1035B0003F932F939F938F9312E01F931F9281EB62
:1035C00097E69F938F930E9403101F9201E00F9341
:1035D0008AEB97E69F938F930E940310ECE0F0E64E
:1035E00080858F9387818F9386818F9385818F9339
:1035F0001F930F9384EC97E69F938F930E94031081
:103600001F921F938EEC97E69F938F930E94031057
:10361000888599852A853B853F932F939F938F9328
:103620001F931F9388ED97E69F938F930E9403103B
:103630002DB73EB72C5D3F4F2DBF3EBF1F92C3E05D
:10364000CF9381EE97E69F938F930E9403100E9481
:103650000D119F938F930F93CF938BEE97E69F93CC
:103660008F930E94031080916C681F928F931F9319
:10367000CF938EEE97E69F938F930E9403101F9235
:10368000C4E0CF9385EF97E69F938F930E9403103A
:10369000E4E5F8E681898F9380898F931F93CF9318
:1036A00082E098E69F938F930E9403101F9285E01B
:1036B0008F9388E098E69F938F930E9403108091E8
:1036C0006160EDB7FEB77E96EDBFFEBF813021F49D
:1036D00086E00E94211A5CC0C7E4D0E68D818F93FA
:1036E0008C818F938B818F938A818F9389818F9324
:1036F00088818F931F920F2EF6E0EF2EF02DEF9220
:103700008EE198E69F938F930E94031004E518E6DC
:10371000F80184859585268537853F932F939F9360
:103720008F936894FF24F1F8FF92EF928FE298E66E
:103730009F938F930E9403108B858F938A858F931D
:1037400089858F9388858F938F818F938E818F93B7
:103750001F92C7E0CF9386E398E69F938F930E94D2
:103760000310F80180859185228533853F932F933F
:103770009F938F93FF92CF938AE498E69F938F93C2
:103780000E9403102DB73EB72C5D3F4F2DBF3EBFAB
:10379000DF91CF911F910F91FF90EF90089580914D
:1037A0006B68853119F40E942F1A0895863119F437
:1037B0000E94821A08950E94C41A08955058BB2787
:1037C000AA270E94F61B0C941E1E0E94101E38F0A1
:1037D0000E94171E20F039F49F3F19F426F40C9430
:1037E000D61D0EF4E095E7FB0C94D01DE92F0E9446
:1037F0002F1E58F3BA17620773078407950720F046
:1038000079F4A6F50C94511E0EF4E0950B2EBA2F08
:10381000A02D0B01B90190010C01CA01A0011124D6
:10382000FF27591B99F0593F50F4503E68F11A1682
:10383000F040A22F232F342F4427585FF3CF469513
:1038400037952795A795F0405395C9F77EF41F1635
:10385000BA0B620B730B840BBAF09150A1F0FF0FFF
:10386000BB1F661F771F881FC2F70EC0BA0F621FEB
:10387000731F841F48F4879577956795B795F795DB
:103880009E3F08F0B0CF9395880F08F09927EE0F70
:103890009795879508950E94AC1D08F481E00895DE
:1038A0000E94641C0C941E1E0E94171E58F00E9459
:1038B000101E40F029F45F3F29F00C94D01D5111E7
:1038C0000C94521E0C94D61D0E942F1E68F399234F
:1038D000B1F3552391F3951B550BBB27AA2762170C
:1038E0007307840738F09F5F5F4F220F331F441F19
:1038F000AA1FA9F335D00E2E3AF0E0E832D091504D
:103900005040E695001CCAF72BD0FE2F29D0660F39
:10391000771F881FBB1F261737074807AB07B0E87C
:1039200009F0BB0B802DBF01FF2793585F4F3AF082
:103930009E3F510578F00C94D01D0C94521E5F3FB1
:10394000E4F3983ED4F3869577956795B795F79508
:103950009F5FC9F7880F911D9695879597F90895F0
:10396000E1E0660F771F881FBB1F6217730784078C
:10397000BA0720F0621B730B840BBA0BEE1F88F79B
:10398000E095089529F416F00C94D01D0C94511E66
:103990000C94D61D0E94371EA8F39638A0F707F89E
:1039A0000F92E8942BE33AEA48EB5FE70E94391F55
:1039B0000F920F920F924DB75EB70F920E94EF1EBB
:1039C000EAEBF0E00E94E91D4F915F91EF91FF91CA
:1039D000E595EE1FFF1F49F0FE57E0684427EE0F04
:1039E000441FFA95E1F74195550B0E94691E0F900F
:1039F00007FE0C945D1E08950E94371E88F09F57A5
:103A000098F0B92F9927B751B0F0E1F0660F771F02
:103A1000881F991F1AF0BA95C9F714C0B13091F0F8
:103A20000E94511EB1E008950C94511E672F782F0B
:103A30008827B85F39F0B93FCCF3869577956795BD
:103A4000B395D9F73EF490958095709561957F4F29
:103A50008F4F9F4F089597FB16F40E94D91D0C9429
:103A60006F1DE89409C097FB3EF490958095709582
:103A700061957F4F8F4F9F4F9923A9F0F92F96E9BA
:103A8000BB279395F695879577956795B795F1112F
:103A9000F8CFFAF4BB0F11F460FF1BC06F5F7F4FCC
:103AA0008F4F9F4F16C0882311F096E911C07723DE
:103AB00021F09EE8872F762F05C0662371F096E8E7
:103AC000862F70E060E02AF09A95660F771F881FB6
:103AD000DAF7880F9695879597F90895E894F92F66
:103AE00096EBFF2381F0121613061406440B9395F0
:103AF000F69587957795679557954040FF23B9F7D9
:103B00001BC099270895882351F49850D2F7872B2A
:103B1000762F652F542F432F322F20E0B1F312164A
:103B200013061406440B88233AF09A95440F551F48
:103B3000661F771F881FCAF755234AF4440F551F85
:103B400011F460FF04C06F5F7F4F8F4F9F4F880F4E
:103B50009695879597F90895990F0008550FAA0B28
:103B6000E0E8FEEF16161706E807F907C0F0121690
:103B70001306E407F50798F0621B730B840B950B93
:103B800039F40A2661F0232B242B252B21F40895E8
:103B90000A2609F4A140A6958FEF811D811D089585
:103BA00097F99F6780E870E060E008959FEF80ECF0
:103BB00008959095809570956095509540953095B5
:103BC00021953F4F4F4F5F4F6F4F7F4F8F4F9F4F0D
:103BD0000895DF93CF931F930F93FF92EF92DF929D
:103BE0007B018C01689406C0DA2EEF010E94361F1B
:103BF000FE01E894A5912591359145915591A6F343
:103C0000EF010E94F61BFE019701A801DA9469F703
:103C1000DF90EF90FF900F911F91CF91DF9108956A
:103C200000240A941616170618060906089500249B
:103C30000A9412161306140605060895092E039415
:103C4000000C11F4882352F0BB0F40F4BF2B11F489
:103C500060FF04C06F5F7F4F8F4F9F4F089557FDE8
:103C60009058440F551F59F05F3F71F04795880FEA
:103C700097FB991F61F09F3F79F087950895121681
:103C800013061406551FF2CF4695F1DF08C016162D
:103C900017061806991FF1CF8695710561050894DE
:103CA0000895E894BB2766277727CB0197F90895F5
:103CB0000E94AC1D08F48FEF08959B01AC0160E0F9
:103CC00070E080E89FE30C94501C0C94D01D0C9481
:103CD00044200E94371ED8F39923C9F3940F511D35
:103CE000A3F39150504094F059F0882332F0660FBE
:103CF000771F881F91505040C1F79E3F51052CF708
:103D0000880F911D9695879597F908955F3FACF0C0
:103D1000983E9CF0BB27869577956795B79508F4F4
:103D2000B1609395C1F7BB0F58F711F460FFE8CF6E
:103D30006F5F7F4F8F4F9F4FE3CF0C94521E16F053
:103D40000C9444200C94D61D68940C94D01D0E94B1
:103D5000371EA8F39923C1F3AEF3DF93CF931F93DC
:103D60000F93FF92C92FDD2788232AF02197660F32
:103D7000771F881FDAF720E030E040E85FEB9FE331
:103D8000883920F0803E38F021968F770E94DF1B23
:103D9000E2EEF0E004C00E94DF1BEFE0F1E00E94E1
:103DA000E91D8B01BE01EC01FB2E6F577109759562
:103DB000771F880B990B0E94331D28E132E741E3FE
:103DC0005FE30E94361FAF2D9801AE01FF900F9167
:103DD0001F91CF91DF910E94F61B0C941E1EFA01D9
:103DE000DC01AA0FBB1F9B01AC01BF5728F422279F
:103DF00033274427507820C0B75190F4AB2F0024CC
:103E0000469537952795011CA395D2F3002071F0B4
:103E1000220F331F441FB395DAF30ED00C94DE1B30
:103E200061307105A0E88A07B94630F49B01AC0106
:103E30006627772788279078309621F02083318372
:103E40004283538308950E94361F0C941E1E0E94C5
:103E5000101E38F00E94171E20F0952311F00C94CC
:103E6000D01D0C94D61D11240C94521E0E942F1E9E
:103E700070F3959FC1F3950F50E0551F629FF001BD
:103E8000729FBB27F00DB11D639FAA27F00DB11DD6
:103E9000AA1F649F6627B00DA11D661F829F22275F
:103EA000B00DA11D621F739FB00DA11D621F839FE6
:103EB000A00D611D221F749F3327A00D611D231FBC
:103EC000849F600D211D822F762F6A2F11249F570A
:103ED00050409AF0F1F088234AF0EE0FFF1FBB1F0D
:103EE000661F771F881F91505040A9F79E3F5105CC
:103EF00080F00C94D01D0C94521E5F3FE4F3983E6A
:103F0000D4F3869577956795B795F795E7959F5F75
:103F1000C1F7FE2B880F911D9695879597F9089507
:103F2000FA01EE0FFF1F309621053105A1F1611551
:103F3000710561F48038BFE39B0749F168949038BC
:103F4000810561F08038BFEF9B0741F099234AF566
:103F5000FF3FE1053105210519F1E8940894E79543
:103F6000D901AA2329F4AB2FBE2FF85FD0F310C0DC
:103F7000FF5F70F4A695E0F7F73950F019F0FF3ABB
:103F800038F49F779F930DD00F9007FC90580895B9
:103F900046F00C94D61D60E070E080E89FE3089541
:103FA0004FE79F775F934F933F932F930E94A71EF6
:103FB0002F913F914F915F910E94231F0C94CA1C37
:103FC0000E94371EE8F09E37E8F09639B8F49E3824
:103FD00048F4672F782F8827985FF9CF86957795D3
:103FE000679593959539D0F3B62FB1706B0F711D0E
:103FF000811D20F487957795679593950C942920DA
:104000000C9444200C94521EDF93D92F0E946820F8
:10401000E695D7952AED3FE049E45FE3B33A6207BE
:10402000730784079507D7953AF0A2EA49EC9068A0
:104030000E94F61B0E941E1EECE3F1E00E9452203B
:10404000DD0F13F00E945D1EDD0F0BF49058DF9121
:104050000895882371F4772321F09850872B762FC9
:1040600007C0662311F499270DC09051862B70E08C
:1040700060E02AF09A95660F771F881FDAF7880F9D
:104080009695879597F908959F3F31F0915020F4C8
:10409000879577956795B795880F911D9695879524
:1040A00097F908959F938F937F936F93FF93EF9367
:1040B0009B01AC010E94231FEF91FF910E94E91D1B
:1040C0002F913F914F915F910C94231F0C94D61D1B
:1040D0000E94371ED8F3E894E0E0BB279F57F0F02A
:1040E0002AED3FE049EC06C0EE0FBB0F661F771FBD
:1040F000881F28F0B23A62077307840728F0B25A83
:10410000620B730B840BE3959A9572F7803830F449
:104110009A95BB0F661F771F881FD2F790480C94A3
:104120004620A0E1B0E0E7E9F0E20C9489257C01AB
:104130001B016A01FC0116821782838181FF44C33F
:104140009E012F5F3F4F3901F7019381F10193FDEC
:10415000859193FF81911F01882309F431C3853232
:1041600039F493FD859193FF81911F01853239F4D4
:10417000B70190E00E94532756016501E5CF10E09A
:10418000512C912CFFE1F915D8F08B3279F038F4ED
:10419000803279F08332A1F4F92DF0612EC08D3296
:1041A00061F0803369F4292D21602DC0392D3260F2
:1041B000932E892D8460982E2AC0E92DE86015C0C1
:1041C00097FC2DC020ED280F2A3088F496FE06C0FB
:1041D0003AE0139F200D1124122F19C08AE0589E37
:1041E000200D1124522EE92DE0629E2E10C08E3239
:1041F00031F496FCE5C2F92DF0649F2E08C08C3690
:1042000021F4292D2068922E02C0883641F4F10154
:1042100093FD859193FF81911F018111B3CF9BEB9A
:10422000980F933020F4992D9061805E07C09BE930
:10423000980F933008F066C1992D9F7E96FF16E087
:104240009F73992E853619F49064992E08C086368E
:1042500021F4392F3068932E02C01111115097FEAE
:1042600007C01C3350F444244394410E27E00BC094
:10427000183038F027E017E005C027E09CE3492E0E
:1042800002C0212F412C560184E0A80EB11CF6017A
:104290006081718182819381042DA3010E94312666
:1042A0006C01F981FC87F0FF02C0F3FF06C091FCAE
:1042B00006C092FE06C000E205C00DE203C00BE29C
:1042C00001C000E08C858C7019F001115AC29BC2AC
:1042D00097FE10C04C0CFC85F4FF04C08A8181332A
:1042E00009F44A94141474F528E0241578F588E04C
:1042F000482E2CC096FC2AC0812F90E08C159D057D
:104300009CF03CEFC3163FEFD30674F0892D806814
:10431000982E0AC0E2E0F0E0EC0FFD1FE10FF11D66
:104320008081803319F411501111F4CF97FE0EC023
:1043300044244394410E812F90E0C816D9062CF4F2
:104340001C1904C04424439401C010E097FE06C029
:104350001C141D0434F4C601019605C085E090E0EC
:1043600002C081E090E001110196112331F0212F6C
:1043700030E02F5F3F4F820F931F252D30E08217D3
:10438000930714F4581A01C0512C892D897049F4EF
:10439000552039F0B70180E290E00E9453275A94EB
:1043A000F7CF002329F0B701802F90E00E94532718
:1043B00093FC09C0552039F0B70180E390E00E94DA
:1043C00053275A94F7CF97FE4CC04601D7FE02C040
:1043D000812C912CC60188199909F301E80FF91F66
:1043E000ED87FE879601241931092F87388B012F1D
:1043F00010E01195019511093FEF8316930629F4FA
:10440000B7018EE290E00E945327C814D9044CF003
:104410008F8598898815990524F4ED85FE8581811D
:1044200001C080E3F1E08F1A91082D853E852F5F52
:104430003F4F2D873E87801691062CF0B70190E004
:104440000E945327D9CFC814D90441F49A819633D6
:1044500020F4953319F43C8534FF81E3B70190E0F3
:104460004EC08A81813319F09C859F7E9C87B7015D
:1044700090E00E945327111105C094FC18C085E6F6
:1044800090E017C0B7018EE290E00E9453271E5FB4
:1044900082E001E0080FF301E80FF11D8081B70110
:1044A00090E00E945327802F0113F3CFE6CF85E4DD
:1044B00090E0B7010E945327D7FC06C0C114D10475
:1044C00041F4EC85E4FF05C0D194C194D1088DE29C
:1044D00001C08BE2B70190E00E94532780E32AE0FD
:1044E000C216D1042CF08F5FFAE0CF1AD108F7CFB3
:1044F000B70190E00E945327B701C601C0960E9401
:10450000532754C1833631F0833779F0833509F06E
:1045100056C020C0560132E0A30EB11CF6018081C6
:10452000898301E010E0630112C05601F2E0AF0E92
:10453000B11CF601C080D18096FE03C0612F70E0EF
:1045400002C06FEF7FEFC6010E9419278C01F92D81
:10455000FF7714C0560122E0A20EB11CF601C08004
:10456000D18096FE03C0612F70E002C06FEF7FEF35
:10457000C6010E9409278C01F92DF0689F2EF3FDDA
:104580001AC0852D90E008171907A8F4B70180E23A
:1045900090E00E9453275A94F4CFF60197FC85913E
:1045A00097FE81916F01B70190E00E94532751104F
:1045B0005A94015011090115110579F7F7C0843695
:1045C00011F0893661F5560197FE09C024E0A20E6C
:1045D000B11CF60160817181828193810AC0F2E091
:1045E000AF0EB11CF60160817181072E000C880BA3
:1045F000990BF92DFF769F2E97FF09C09095809516
:10460000709561957F4F8F4F9F4FF0689F2E2AE0E6
:1046100030E0A3010E94EA27C82EC6183FC0092D2A
:10462000853721F40F7E2AE030E01DC0097F8F36E8
:1046300091F018F4883559F0C3C0803719F08837E5
:1046400011F0BEC0006104FF09C0046007C094FE01
:1046500008C0066006C028E030E005C020E130E078
:1046600002C020E132E0560107FF09C084E0A80E35
:10467000B11CF601608171818281938108C0F2E0F2
:10468000AF0EB11CF6016081718180E090E0A30162
:104690000E94EA27C82EC6180F77902E96FE0BC0F0
:1046A000092D0E7FC11650F494FE0AC092FC08C07A
:1046B000092D0E7E05C0DC2C092D03C0DC2C01C0A9
:1046C000D12E04FF0DC0FE01EC0DF11D8081803361
:1046D00011F4097E09C002FF06C0D394D39404C02C
:1046E000802F867809F0D39403FD11C000FF06C027
:1046F0001C2DD51480F4150D1D190DC0D51458F4BA
:10470000B70180E290E00E945327D394F7CFD514ED
:1047100010F45D1801C0512C04FF10C0B70180E3F4
:1047200090E00E94532702FF17C001FD03C088E7F5
:1047300090E002C088E590E0B7010CC0802F867839
:1047400059F001FF02C08BE201C080E207FD8DE25B
:10475000B70190E00E945327C11638F4B70180E3F7
:1047600090E00E9453271150F7CFCA94F301EC0D4B
:10477000F11D8081B70190E00E945327C110F5CF51
:1047800015C0F4E0F51560F584E0581A93FE1FC0DB
:10479000011127C02C8523FF2AC000E611E0392D26
:1047A0003071932EF8018491811124C0552009F4B1
:1047B000E4CCB70180E290E00E9453275A94F6CFF0
:1047C000F7018681978126C08FEF9FEF23C0B70145
:1047D00080E290E00E9453275A945110F8CFD8CF2E
:1047E000512CB701802F90E00E945327D3CF04E6CD
:1047F00011E0D5CF91108052B70190E00E9453276D
:104800000F5F1F4FCFCF23E0251510F483E0BDCFFE
:10481000512CC0CF6096E2E10C94A225DB018F936E
:104820009F930E947D24BF91AF91A29F800D911D07
:10483000A39F900DB29F900D11240895AA1BBB1B3E
:1048400051E107C0AA1FBB1FA617B70710F0A61B90
:10485000B70B881F991F5A95A9F780959095BC01B1
:10486000CD01089597FB072E16F4009407D077FD2D
:1048700009D00E941E2407FC05D03EF49095819536
:104880009F4F0895709561957F4F0895A1E21A2E6C
:10489000AA1BBB1BFD010DC0AA1FBB1FEE1FFF1FE4
:1048A000A217B307E407F50720F0A21BB30BE40B34
:1048B000F50B661F771F881F991F1A9469F760957B
:1048C0007095809590959B01AC01BD01CF01089535
:1048D000EE0FFF1F0590F491E02D0994A29FB00107
:1048E000B39FC001A39F700D811D1124911DB29F24
:1048F000700D811D1124911D08950E946E24A59FA5
:10490000900DB49F900DA49F800D911D11240895CA
:10491000B7FF0C947D240E947D24821B930B089585
:10492000DF93CF931F930F939A9DF02D219FF00D4E
:104930008B9DF00D8A9DE02DF10D039FF00D029FE0
:10494000E00DF11D4E9DE00DF11D5E9DF00D4F9DA2
:10495000F00D7F936F93BF92AF925F934F93D5010A
:104960000E946E248B01AC01D7010E946E24EB01E2
:10497000E80FF91FD6010E94E0242F913F91D60144
:104980000E946E24C60FD71FE81FF91FAF91BF9179
:104990000E94E0242F913F910E946E24C60FD71FE2
:1049A000E81FF91FD6010E946E24E60FF71F980139
:1049B000BE01CF0111240F911F91CF91DF91089576
:1049C0000E946E24460F571FC81FD91F08F4319646
:1049D0000895689401C0E894F92FF12B12F00C941B
:1049E0001D25A0E0B0E0E7EFF4E20C948F25092E3E
:1049F000059422F40E947925112392F4F0E80F2601
:104A0000FFEFE094F09400951095B094C094D0948A
:104A1000A194BF0ACF0ADF0AEF0AFF0A0F0B1F0B90
:104A20000E94282507FC0E947925CDB7DEB7ECE06F
:104A30000C94A825689401C0E8948F929F92CF931C
:104A4000DF930E942825DF91CF919F908F9008954A
:104A500088249924F401E401B0E49F93AA279A15CD
:104A60008B049C04ED05FE05CF05D007A10798F443
:104A7000AD2FDC2FCF2FFE2FE92D982C892E982FCC
:104A8000872F762F652F542F432F322F2227B85090
:104A900031F7BF9127C01B2EBF91BB27220F331FB9
:104AA000441F551F661F771F881F991F881C991C5C
:104AB000EE1FFF1FCC1FDD1FAA1FBB1F8A149B0404
:104AC000EC05FD05CE05DF05A007B10748F08A1803
:104AD0009B08EC09FD09CE09DF09A00BB10B216091
:104AE0001A94E1F62EF49401AF01BE01CD01000C41
:104AF0000895609570958095909530954095509566
:104B000021953F4F4F4F5F4F6F4F7F4F8F4F9F4FBD
:104B100008952F923F924F925F926F927F928F9261
:104B20009F92AF92BF92CF92DF92EF92FF920F933C
:104B30001F93CF93DF93CDB7DEB7CA1BDB0BCDBF7F
:104B4000DEBF09942A88398848885F846E847D8412
:104B50008C849B84AA84B984C884DF80EE80FD8025
:104B60000C811B81AA81B981CE0FD11DCDBFDEBFC3
:104B7000ED0108950F93083090F0982F872F762F2E
:104B8000652F542F432F322F22270850F4CF220FA6
:104B9000331F441F551F661F771F881F991F0A95D3
:104BA000B2F70F91089597FB10F8169400080F9331
:104BB000083098F00850232F342F452F562F672F99
:104BC000782F892F902DF4CF059497958795779519
:104BD000679557954795379527950A95AAF70F91A9
:104BE00008952A0D3B1D4C1D5D1D6E1D7F1D801FF0
:104BF000911F08952A193B094C095D096E097F0927
:104C0000800B910B08950024A7FD00942A1730050E
:104C100040055005600570058005900508956627DC
:104C200077270C94F52AFC0188279927E89421918D
:104C30002032E9F3293010F02E30C8F32B3241F046
:104C40002D3239F4689404C00E944B27820F911DC5
:104C5000219120532A30C0F31EF4909581959F4FE7
:104C60000895283008F027E03327DA01990F311D25
:104C700087FD916000966105710539F432602E5F01
:104C80003D9330E32A95E1F708959F3F30F0803857
:104C90007105610509F03C5F3C5F3D93913008F080
:104CA0008068911DDF93CF931F930F93FF92EF9234
:104CB000192F987F9695E92F96959695E90FFF27DE
:104CC000EE53FE4F99273327EE24FF24A701E70177
:104CD00005900894079428F4360FE71EF81E491F24
:104CE000511D660F771F881F991F0694A1F7059025
:104CF000079428F4E70EF81E491F561FC11D770FB1
:104D0000881F991F661F0694A1F70590079428F441
:104D1000F80E491F561FC71FD11D880F991F661F08
:104D2000771F0694A1F70590079420F4490F561FAA
:104D3000C71FD81F990F661F771F881F0694A9F7F2
:104D400084911095177041F0D695C7955795479562
:104D5000F794E7941A95C1F7E8E6F1E068941590A6
:104D6000159135916591959105907FE27395E118C4
:104D7000F10A430B560BC90BD009C0F7E10CF11E29
:104D8000431F561FC91FD01D7EF4703311F48A953E
:104D9000E6CFE894015030F0080F0AF4002702171C
:104DA00008F4202F2395022F7A3328F079E37D939E
:104DB0002A95E9F710C07D932A9589F60694979570
:104DC0006795379517951794E118F10A430B560B21
:104DD000C90BD00998F023957E9173957A3308F02A
:104DE00070E37C932013B8F77E9170617D9330F06F
:104DF000839571E37D9370E32A95E1F71124EF9099
:104E0000FF900F911F91CF91DF91992787FD90958A
:104E10000895FC010590615070400110D8F780950D
:104E200090958E0F9F1F089542E558E60E94242713
:104E30000895FC016150704001900110D8F78095F1
:104E400090958E0F9F1F0895FA01A191B081009750
:104E500019F41097E1F0CD01DC01CD010D90002097
:104E600011F4C00113C0FB012191222319F0201578
:104E7000D9F7F3CFFB012191201519F41E92119659
:104E800006C02223C1F70D900020A1F7D001FA013E
:104E9000A193B08308957AE0979F902D879F802DEE
:104EA000910D112408950F931F93CF93DF93FB016E
:104EB000238121FD03C08FEF9FEF2CC022FF16C07E
:104EC00046815781248135814217530744F4A081DC
:104ED000B1819D012F5F3F4F208331838C932681C9
:104EE00037812F5F3F4F2683378314C08B01EC013E
:104EF000FB010084F185E02D0995892BE1F6D801AD
:104F000016968D919C911797019616968D939C936A
:104F10001797CE01DF91CF911F910F910895A0E0D7
:104F2000B0E0E5E9F7E20C949925AE014B5F5F4FE5
:104F3000FA0161917191AF018091BE689091BF6853
:104F40000E949120E2E00C94B225AEE0B0E0EBEAE2
:104F5000F7E20C94992585E08C838B899C89898361
:104F60009A83AE01495E5F4F6D897E89CE010196BD
:104F70000E94E4292E96E2E00C94B225AEE0B0E067
:104F8000E4ECF7E20C9497258C01FA0186E08C831F
:104F900009831A8377FF02C060E070E8CB010197B4
:104FA0008D839E83A901BF01CE0101960E949120AD
:104FB0004D815E8157FD0AC02F8138854217530706
:104FC0000CF49A01F801E20FF31F10822E96E4E030
:104FD0000C94B025FA01AA27283051F1203181F133
:104FE000E8946F936E7F6E5F7F4F8F4F9F4FAF4FF1
:104FF000B1E03ED0B4E03CD0670F781F891F9A1F04
:10500000A11D680F791F8A1F911DA11D6A0F711DB7
:10501000811D911DA11D20D009F468943F912AE0C3
:10502000269F11243019305D3193DEF6CF010895AB
:10503000462F4770405D4193B3E00FD0C9F7F6CFDC
:10504000462F4F70405D4A3318F0495D31FD4052A4
:10505000419302D0A9F7EACFB4E0A695979587953A
:1050600077956795BA95C9F7009761057105089519
:105070009B01AC010A2E06945795479537952795C5
:10508000BA95C9F7620F731F841F951FA01D08955D
:1050900020FD09C0FC0123FD05C022FF02C073836F
:1050A000628351834083089544FD17C046FD17C0B5
:1050B000AB01BC01DA01FB01AA0FBB1FEE1FFF1FF2
:1050C0001094D1F74A0F5B1F6E1F7F1FCB01BA01EF
:1050D000660F771F881F991F09C033E001C034E0B5
:1050E000660F771F881F991F3150D1F7620F711D0E
:1050F000811D911D08950F931F93CF93DF938C0112
:10510000C8010E946F2CEC0197FD08C00E94432C3F
:10511000892BB1F7B801CE010E94AD2CCE01DF91F1
:10512000CF911F910F9108958F929F92AF92BF924E
:10513000EF92FF920F931F93CF93DF938C01D62FA3
:105140007A01B22E0E946F2C9C0133272B3231053D
:1051500031F02D32310561F48B2D8068B82ED1509D
:1051600011F480E068C0C8010E946F2C97FDF9CF50
:10517000CB2DCD7F2B2D207309F58033F9F4AA2494
:10518000AA94AD0E09F443C0C8010E946F2C97FD8C
:105190003EC09C012F7D33272835310549F4C26478
:1051A000D250A9F1C8010E946F2C97FF07C02FC0F1
:1051B000B6FE02C0C26001C0C261DA2D812C912C02
:1051C000540120ED280F283080F0C4FF04C0B8013E
:1051D0000E94AD2C19C02A3040F0C6FFF8CF2F7DB9
:1051E0003FEE320F363098F727504C2FC501B401EF
:1051F0000E9454284B015C01C260D15059F0C80193
:105200000E946F2C97FFDDCFC1FD04C0AACF812C77
:10521000912C5401C7FF08C0B094A094909480943E
:10522000811C911CA11CB11C2C2FB501A401C7012C
:105230000E94482881E0DF91CF911F910F91FF904C
:10524000EF90BF90AF909F908F900895A0E2B0E054
:10525000ECE2F9E20C948C255C01962E7A01F901BE
:105260008E010F5F1F4F680180E2D8011D928A9561
:10527000E9F7D50113968C9080E090E0612C712CB9
:1052800030E061E070E083FC259183FE21918F0185
:10529000522E211103C080E090E092C02E3511F40F
:1052A000009751F1432F50E0481759073CF42D3532
:1052B00059F12D3219F4772009F103C0772009F450
:1052C0006AC0452D469546954695D601A40FB11D59
:1052D000452D47708B0102C0000F111F4A95E2F760
:1052E000A8015C91452B4C93651459F0561410F4A9
:1052F0005394E7CF5A94E5CF31E004C077247394F8
:1053000001C0712C0196BFCF772019F08E81806289
:105310008E83311103C08824839417C0F6019E0147
:105320002F5D3F4F8081809581932E173F07D1F7E6
:10533000F2CFE114F10429F0D7018C93F7013196F3
:105340007F019A94812C9920F9F0C5010E946F2C5D
:1053500097FD18C0FC01FF2723E0F595E7952A95F6
:10536000E1F7EC0DFD1D208130E0AC0147705527C1
:1053700002C0359527954A95E2F720FDDACFB501B1
:105380000E94AD2C811087CFE114F10411F0D701F8
:105390001C92C80115C0422F469546954695D601E8
:1053A000A40FB11D422F47708B0102C0000F111FC7
:1053B0004A95E2F7A8015C91452B4C93622EA2CF4F
:1053C000A096EFE00C94A525A0E0B0E0EAEEF9E2AB
:1053D0000C948C256C01EB015A01FC01168217829A
:1053E000512CF601E380FE01E3FC8591E3FE8191FF
:1053F000182FEF01882309F4EEC090E00E94432C9F
:10540000892B21F0C6010E947B28EBCF153241F495
:10541000FE01E3FC1591E3FE1191EF01153281F4D9
:10542000C6010E946F2C97FDD4C0412F50E09C0113
:10543000332724173507A9F2B6010E94AD2CCBC043
:105440001A3239F4E3FC1591E3FE1191EF0101E00A
:1054500001C000E0F12C20ED210F2A3080F4026021
:105460006F2D70E080E090E040E20E945428F62E1C
:10547000FE01E3FC1591E3FE1191EF01ECCF01FF7A
:1054800003C0F11003C0A7C0FF24FA94183619F026
:105490001C3651F010C0FE01E3FC1591E3FE1191A2
:1054A000EF01183641F408600460FE01E3FC159139
:1054B000E3FE1191EF01112309F48DC0612F70E01B
:1054C00082E692E00E944C2C892B09F484C000FDF6
:1054D00007C0F50180809180C50102965C0102C081
:1054E000812C912C1E3651F4F6014681578160E0E3
:1054F00070E0202FC4010E94482873CF1336A9F40E
:1055000001FD02C0FF24F394C6010E946F2C97FD99
:1055100060C08114910429F0F4018083C4010196D4
:105520004C01FA94F110F0CF50C01B3559F49E0194
:10553000A4016F2DC6010E942629EC01892B09F0D8
:1055400044C03EC0C6010E947B2897FD42C01F3662
:1055500061F128F4143639F1193651F128C01337A6
:1055600071F0153701F123C08114910429F0F40181
:105570006082C40101964C01FA94FF2071F0C601CB
:105580000E946F2C3C0197FD08C00E94432C892B80
:1055900059F3B601C3010E94AD2C81149104A9F006
:1055A000F401108212C0006203C0006101C00064F7
:1055B000202FA4016F2DC6010E949428811105C0DF
:1055C000F6018381807329F406C000FD0ACF53944D
:1055D00008CF552019F0852D90E002C08FEF9FEF86
:1055E000CDB7DEB7EFE00C94A525A0E0B0E0EBEF7F
:1055F000FAE20C948F25EC016B016115710519F02D
:10560000FB01808391837E01FFEFEF1AFF0A08817F
:10561000802F90E00E94432C892B11F0E701F3CFFB
:105620000D3239F47E0182E0E80EF11C098111E0AF
:1056300008C00B3229F47E0192E0E90EF11C0981C9
:1056400010E0E701219743E050E066E772E0CE0109
:105650000E94572C892BC1F4239645E050E061E766
:1056600072E0CE010E94572C892B09F42596C114B3
:10567000D10419F0F601C083D1831111F6C060E0A6
:1056800070E080E89FE7FAC043E050E06EE672E029
:10569000CE010E94572C892B59F4C114D10409F46E
:1056A000E9C0F2E0EF0EF11CF601E082F182E2C007
:1056B00020E030E0A901C0E0D0E0F70180EDA82EA5
:1056C000A00E89E08A1530F1912F9260B92E812FBA
:1056D000887012FF04C0811124C0219622C081115C
:1056E0002197A5E0B0E00E947D24DC01CB01880F6A
:1056F000991FAA1FBB1F9C01AD012A0D311D411D21
:10570000511D283989E93807480789E1580748F0C9
:10571000166006C09EEFA9120AC013FD40C01860B3
:10572000B12E8FEFE81AF80A00811B2DC6CF802F0B
:105730008F7D8534A1F580818D3211F4106106C012
:105740008B3221F0319661E070E004C081813296A5
:1057500062E070E080538A3018F0E61BF70B1FC040
:1057600060E070E060389CE079075CF4DB01AA0F30
:10577000BB1FAA0FBB1F6A0F7B1F660F771F680F27
:10578000711D3196DF0111978C9180538A3050F34F
:1057900014FF03C0719561957109C60FD71F11FFE2
:1057A00008C0C114D10429F0CF010197F60180830C
:1057B0009183CA01B9010E94311D212F237023302A
:1057C00019F04B015C0106C04B015C01B7FAB094C3
:1057D000B7F8B09420E030E0A901C501B4010E94FF
:1057E0004B1C882309F43EC0D7FF06C0D195C19554
:1057F000D1090DE812E002C005EA12E06801F8E103
:10580000CF1AD10890E2E92EF12CCE15DF0574F005
:10581000F8012591359145915491C501B4010E943B
:10582000231F4B015C01CE19DF09EFCF0450110992
:10583000F594E7940C151D0541F78A2D880F8B2DE3
:10584000881F8F3F49F020E030E0A901C501B40175
:105850000E944B1C811106C082E290E08093C268D6
:105860009093C368C501B40109C060E070E080E8AE
:105870009FEF04C060E070E080EC9FE7CDB7DEB73B
:10588000ECE00C94A82591110C94C62C803219F0F0
:1058900089508550C8F70895FC010590061621F03F
:1058A0000020D9F7C00108953197CF010895FB0179
:1058B000DC014150504088F08D9181341CF08B35D3
:1058C0000CF4805E659161341CF06B350CF4605E05
:1058D000861B611171F3990B0895881BFCCFCF9340
:1058E000DF93EC012B8120FF33C026FF0AC02F7B02
:1058F0002B838E819F8101968E839F838A8190E086
:1059000029C022FF0FC0E881F9818081082E000C98
:10591000990B009719F420622B831AC03196E88303
:10592000F9830EC0EA85FB85099597FF09C02B8195
:10593000019611F080E201C080E1822B8B8308C0C8
:105940002E813F812F5F3F4F2E833F83992702C0D7
:105950008FEF9FEFDF91CF910895FB01238120FF0F
:1059600012C026FD10C08F3F3FEF930761F0828386
:105970002F7D20642383268137812150310926839E
:105980003783992708958FEF9FEF089599278827E8
:105990000895DC0128ED209334006C930895F89469
:0259A000FFCF37
:1059A20000000000000000000000B04258000000AB
:1059B20000000000000000000000000000000000E5
:1059C2000000000000000000000000000000008055
:1059D2000000008000000000000000000000000045
:1059E20000000000000000000000000000000000B5
:1059F200000000000000000000000000000200CED5
:105A0200FF00000000000000010000000000000094
:105A12000000000000000000000000000000000084
:105A22005F00000007000700147F147F14242A7F00
:105A32002A122313086462364955225000050300D6
:105A420000001C2241000041221C0014083E0814E0
:105A520008083E080800503000000808080808003E
:105A62006060000020100804023E5149453E004299
:105A72007F400042615149462141454B3118141281
:105A82007F1027454545393C4A494930017109058E
:105A9200033649494936064949291E00363600006F
:105AA2000056360000081422410014141414140085
:105AB200412214080201510906324979413E7E1100
:105AC20011117E7F494949363E414141227F414180
:105AD200221C7F494949417F090909013E4149493F
